{
  "contractName": "Marketplace",
  "abi": [
    {
      "inputs": [],
      "stateMutability": "nonpayable",
      "type": "constructor"
    },
    {
      "anonymous": false,
      "inputs": [
        {
          "indexed": false,
          "internalType": "uint256",
          "name": "orderId",
          "type": "uint256"
        }
      ],
      "name": "MissionComplete",
      "type": "event"
    },
    {
      "inputs": [],
      "name": "owner",
      "outputs": [
        {
          "internalType": "address",
          "name": "",
          "type": "address"
        }
      ],
      "stateMutability": "view",
      "type": "function"
    },
    {
      "inputs": [],
      "name": "status",
      "outputs": [
        {
          "internalType": "enum Marketplace.ShippingStatus",
          "name": "",
          "type": "uint8"
        }
      ],
      "stateMutability": "view",
      "type": "function"
    },
    {
      "inputs": [],
      "name": "Shipped",
      "outputs": [],
      "stateMutability": "nonpayable",
      "type": "function"
    },
    {
      "inputs": [],
      "name": "Delivered",
      "outputs": [],
      "stateMutability": "nonpayable",
      "type": "function"
    },
    {
      "inputs": [],
      "name": "getStatus",
      "outputs": [
        {
          "internalType": "enum Marketplace.ShippingStatus",
          "name": "",
          "type": "uint8"
        }
      ],
      "stateMutability": "view",
      "type": "function"
    },
    {
      "inputs": [],
      "name": "Status",
      "outputs": [
        {
          "internalType": "enum Marketplace.ShippingStatus",
          "name": "",
          "type": "uint8"
        }
      ],
      "stateMutability": "payable",
      "type": "function"
    }
  ],
  "bytecode": "0x608060405234801561001057600080fd5b5033600060016101000a81548173ffffffffffffffffffffffffffffffffffffffff021916908373ffffffffffffffffffffffffffffffffffffffff16021790555060008060006101000a81548160ff0219169083600281111561007757610076610081565b5b02179055506100b0565b7f4e487b7100000000000000000000000000000000000000000000000000000000600052602160045260246000fd5b6107f5806100bf6000396000f3fe6080604052600436106100555760003560e01c8063200d2ed21461005a57806345f09ce9146100855780634e69d560146100a3578063779822f7146100ce5780637e59301e146100e55780638da5cb5b146100fc575b600080fd5b34801561006657600080fd5b5061006f610127565b60405161007c9190610517565b60405180910390f35b61008d610138565b60405161009a9190610517565b60405180910390f35b3480156100af57600080fd5b506100b8610226565b6040516100c59190610517565b60405180910390f35b3480156100da57600080fd5b506100e36102ca565b005b3480156100f157600080fd5b506100fa6103be565b005b34801561010857600080fd5b5061011161047a565b60405161011e9190610573565b60405180910390f35b60008054906101000a900460ff1681565b60008060019054906101000a900473ffffffffffffffffffffffffffffffffffffffff1673ffffffffffffffffffffffffffffffffffffffff163373ffffffffffffffffffffffffffffffffffffffff16036101c9576040517f08c379a00000000000000000000000000000000000000000000000000000000081526004016101c090610611565b60405180910390fd5b66b1a2bc2ec50000341015610213576040517f08c379a000000000000000000000000000000000000000000000000000000000815260040161020a906106a3565b60405180910390fd5b60008054906101000a900460ff16905090565b60008060019054906101000a900473ffffffffffffffffffffffffffffffffffffffff1673ffffffffffffffffffffffffffffffffffffffff163373ffffffffffffffffffffffffffffffffffffffff16146102b7576040517f08c379a00000000000000000000000000000000000000000000000000000000081526004016102ae90610735565b60405180910390fd5b60008054906101000a900460ff16905090565b600060019054906101000a900473ffffffffffffffffffffffffffffffffffffffff1673ffffffffffffffffffffffffffffffffffffffff163373ffffffffffffffffffffffffffffffffffffffff161461035a576040517f08c379a000000000000000000000000000000000000000000000000000000000815260040161035190610735565b60405180910390fd5b60026000806101000a81548160ff0219169083600281111561037f5761037e6104a0565b5b02179055507fad0e3d7405ce248d990cf7f4be1854ad649ae514658dd26cd48506ac67e5d9eb607b6040516103b491906107a4565b60405180910390a1565b600060019054906101000a900473ffffffffffffffffffffffffffffffffffffffff1673ffffffffffffffffffffffffffffffffffffffff163373ffffffffffffffffffffffffffffffffffffffff161461044e576040517f08c379a000000000000000000000000000000000000000000000000000000000815260040161044590610735565b60405180910390fd5b60016000806101000a81548160ff02191690836002811115610473576104726104a0565b5b0217905550565b600060019054906101000a900473ffffffffffffffffffffffffffffffffffffffff1681565b7f4e487b7100000000000000000000000000000000000000000000000000000000600052602160045260246000fd5b600381106104e0576104df6104a0565b5b50565b60008190506104f1826104cf565b919050565b6000610501826104e3565b9050919050565b610511816104f6565b82525050565b600060208201905061052c6000830184610508565b92915050565b600073ffffffffffffffffffffffffffffffffffffffff82169050919050565b600061055d82610532565b9050919050565b61056d81610552565b82525050565b60006020820190506105886000830184610564565b92915050565b600082825260208201905092915050565b7f4f6e6c7920637573746f6d6572732063616e2063616c6c20746869732066756e60008201527f6374696f6e000000000000000000000000000000000000000000000000000000602082015250565b60006105fb60258361058e565b91506106068261059f565b604082019050919050565b6000602082019050818103600083015261062a816105ee565b9050919050565b7f496e73756666696369656e7420657468657220746f206765742074686520737460008201527f6174757300000000000000000000000000000000000000000000000000000000602082015250565b600061068d60248361058e565b915061069882610631565b604082019050919050565b600060208201905081810360008301526106bc81610680565b9050919050565b7f4f6e6c79206f776e65722063616e2063616c6c20746869732066756e6374696f60008201527f6e00000000000000000000000000000000000000000000000000000000000000602082015250565b600061071f60218361058e565b915061072a826106c3565b604082019050919050565b6000602082019050818103600083015261074e81610712565b9050919050565b6000819050919050565b6000819050919050565b6000819050919050565b600061078e61078961078484610755565b610769565b61075f565b9050919050565b61079e81610773565b82525050565b60006020820190506107b96000830184610795565b9291505056fea264697066735822122086b96b668d08e97cb03d291dfbf5cc11b86b6817c1a5011d0a5e645c7d0d0a0e64736f6c634300080d0033",
  "immutableReferences": {},
  "source": "// SPDX-License-Identifier: GPL-3.0\n\npragma solidity >=0.7.0 <0.9.0;\n\n\n/**\n * @dev Contract for managing student presence.\n * @custom:dev-run-script deploy_with_ethers.ts\n */\n\n\ncontract Marketplace {\n    enum ShippingStatus {Pending, Shipped, Delivered}\n    ShippingStatus public status;\n\n    event MissionComplete(uint orderId);\n\n    address public owner;\n\n    constructor() {\n        owner = msg.sender;\n        status = ShippingStatus.Pending;\n    }\n\n    modifier ownerOnly() {\n        require(msg.sender == owner, \"Only owner can call this function\");\n        _;\n    }\n\n    modifier customerOnly() {\n        require(msg.sender != owner, \"Only customers can call this function\");\n        _;\n    }\n\n    function Shipped() public ownerOnly {\n        status = ShippingStatus.Shipped;\n    }\n\n    function Delivered() public ownerOnly {\n        status = ShippingStatus.Delivered;\n        emit MissionComplete(123); // replace 123 with orderId of the delivered item\n    }\n\n    function getStatus() public view ownerOnly returns (ShippingStatus) {\n        return status;\n    }\n\n    function Status() public payable customerOnly returns (ShippingStatus) {\n        require(msg.value >= 0.05 ether, \"Insufficient ether to get the status\");\n        return status;\n    }\n}",
  "sourcePath": "/Users/enzotoyos/Desktop/SmartContract_Blockchain/contracts/Delivery.sol",
  "compiler": {
    "name": "solc",
    "version": "0.8.13+commit.abaa5c0e.Emscripten.clang"
  },
  "schemaVersion": "3.4.13",
  "updatedAt": "2023-03-09T11:11:13.497Z",
  "devdoc": {
    "custom:dev-run-script": "deploy_with_ethers.ts",
    "details": "Contract for managing student presence.",
    "kind": "dev",
    "methods": {},
    "version": 1
  },
  "userdoc": {
    "kind": "user",
    "methods": {},
    "version": 1
  }
}